:100E01004F4B2100455252210020202020005061EB
:080E11007373776F72643A00FD
:10080000E4F5087590FFC2972093137F0AFE120E3D
:100810002F3093FD7F0A7E00120E2F750801209263
:10082000147F0A7E00120E2F3092FD7F0A7E001286
:100830000E2F7508022091147F0A7E00120E2F30B1
:1008400091FD7F0A7E00120E2F7508032090147F01
:100850000A7E00120E2F3090FD7F0A7E00120E2FAE
:100860007508047590FFC2962093147F0A7E0012CB
:100870000E2F3093FD7F0A7E00120E2F7508052083
:1008800092147F0A7E00120E2F3092FD7F0A7E00A6
:10089000120E2F7508062091147F0A7E00120E2F6B
:1008A0003091FD7F0A7E00120E2F750807209014EC
:1008B0007F0A7E00120E2F3090FD7F0A7E00120EFE
:1008C0002F7508087590FFC2952093147F0A7E004B
:1008D000120E2F3093FD7F0A7E00120E2F7508092D
:1008E0002092147F0A7E00120E2F3092FD7F0A7E26
:1008F00000120E2F75080A2091147F0A7E00120E36
:100900002F3091FD7F0A7E00120E2F75080B20906C
:10091000147F0A7E00120E2F3090FD7F0A7E001297
:100920000E2F75080C7590FFC2942093147F0A7ED9
:1009300000120E2F3093FD7F0A7E00120E2F7508D5
:100940000D2092147F0A7E00120E2F3092FD7F0A36
:100950007E00120E2F75080E2091147F0A7E001261
:100960000E2F3091FD7F0A7E00120E2F75080F208A
:1009700090147F0A7E00120E2F3090FD7F0A7E00B9
:08098000120E2F750810AF08DC
:01098800224C
:100AE4001208008F24E5247003020C36C3940B50C3
:100AF40057E523C39405503AAF28AE27AD26AC255D
:100B0400E47B0AFAF9F81209B68F288E278D268C11
:100B140025E52475F00A84E4FCFDFEE52825F0F5BE
:100B240028EE3527F527ED3526F526EC3525F52570
:100B3400052385280D85270C85260B85250A750E2A
:100B4400057D017F02120D9AE524640B70637F2AF0
:100B54007E4FFDFCAB28AA27A926A825C3120AD3D9
:100B64007BFF700D7A0E79017D0D7F01120DC4801B
:100B7400407A0E79057D0D7F01120DC47FDC7E0560
:100B8400120E2F7BFF7A0E790A7D0D7F01120DC4A0
:100B9400E4F528F527F526F525F52385280D852781
:100BA4000C85260B85250A750E057D017F02120D25
:100BB4009AE47F2A7E4FFDFCAB28AA27A926A82504
:100BC400C3120AD36039E524B40C34E523D394006A
:100BD400402DAF28AE27AD26AC25E47B0AFAF9F800
:100BE400120A418F288E278D268C2515238F0D8E72
:100BF4000C8D0B8C0A750E057D017F02120D9AE592
:100C040024B40D2E7BFF7A0E790A7D0D7F01120D1F
:100C1400C4E4F528F527F526F525F52385280D8563
:100C2400270C85260B85250A750E057D017F02128A
:020C34000D9A17
:010C3600229B
:100D6F00120E447BFF7A0E790F7D017F01120DC4A5
:100D7F0085280D85270C85260B85250A750E057D83
:0B0D8F00017F02120D9A120AE480FBA3
:100E2F00EF1FAC0670011E4C600A7D027CC7DCFE12
:040E3F00DDFC80EC6A
:010E4300228C
:060E5800C2A58F80D2A7A5
:080E5E007F027EEFDEFEDFFCE7
:010E66002269
:0A0E7300C2A6120E58C2A7020E5EBE
:100DE700120A41E47B0AFAF9F8120A41EB2430FFB0
:0A0DF700D2A6120E58C2A7020E5E2B
:100E1900AE07BE0104ED148006BE0209ED243F446D
:060E290080FF120E73228F
:100E44007F38120E737F0C120E737F06120E737F9F
:040E540001020E7316
:0A0E7D00AC03120E19AF04020DF7CA
:060DC4008B088A09890A70
:100DCA00120E19E4FDAB08AA09A90A8D82758300DF
:0C0DDA00120989FF6006120DF70D80E978
:010DE60022EA
:100C370024FFF515E434FFF5147F0A7E007D007C60
:010C470000AC
:080C48008F138E128D118C1028
:100C5000E4751A01F519F518F517F516C3E516959B
:100C600015E5146480F8748098501FAF1AAE19AD62
:100C700018AC17AB13AA12A911A8101209B68F1A33
:100C80008E198D188C17051680D2AF1AAE19AD18B3
:020C9000AC179F
:010C9200223F
:100D9A00120E19850E0FE50FD39400401CE50F12B1
:100DAA000C37A804A905AA06AB07AF0DAE0CAD0B0C
:090DBA00AC0A120DE7150F80DDF3
:010DC300220D
:100CE200120E19C3EA64809480400B7F2B120DF719
:100CF2008A218B22800E7F2D120DF7C3E49BF522F1
:100D0200E49AF521851F20E520D39400401BE520BD
:100D1200120C37A804A905AA06AB07AE21AF22E43C
:090D2200FCFD120DE7152080DE36
:010D2B0022A5
:040C93008A2B8B2CF1
:100C9700120E19852D2EE52ED39400403DE52E2406
:100CA700FFF515E434FFF5147F10120C42A804A9D0
:100CB70005AA06AB07AE2BAF2CE4FCFD120A41EFE9
:100CC700540FFFAE07EEC3940AEE5004243080029F
:0A0CD7002437FF120DF7152E80BC24
:010CE10022F0
:040D2C008A318B324B
:100D3000120E19853334E534D394004031E5342460
:100D4000FFF515E434FFF5147F02120C42A804A944
:100D500005AA06AB07AE31AF32E4FCFD120A41EF43
:0E0D60005401FFEF2430FF120DF7153480C848
:010D6E002262
:03000000020E6786
:0C0E6700787FE4F6D8FD758134020D6F31
:10098900BB010CE58229F582E5833AF583E0225023
:1009990006E92582F8E622BBFE06E92582F8E2226D
:0D09A900E58229F582E5833AF583E4932287
:1009B600E88FF0A4CC8BF0A42CFCE98EF0A42CFCE0
:1009C6008AF0EDA42CFCEA8EF0A4CDA8F08BF0A45E
:1009D6002DCC3825F0FDE98FF0A42CCD35F0FCEBBD
:1009E6008EF0A4FEA9F0EB8FF0A4CFC5F02ECD3982
:0F09F600FEE43CFCEAA42DCE35F0FDE43CFC22EF
:100A050075F008758200EF2FFFEE33FECD33CDCCA8
:100A150033CCC58233C5829BED9AEC99E58298402B
:100A25000CF582EE9BFEED9AFDEC99FC0FD5F0D608
:100A3500E4CEFBE4CDFAE4CCF9A88222B800C1B932
:100A45000059BA002DEC8BF084CFCECDFCE5F0CB70
:100A5500F97818EF2FFFEE33FEED33FDEC33FCEBA9
:100A650033FB10D703994004EB99FB0FD8E5E4F964
:100A7500FA227818EF2FFFEE33FEED33FDEC33FC51
:100A8500C933C910D7059BE99A4007EC9BFCE99A45
:100A9500F90FD8E0E4C9FAE4CCFB2275F010EF2F8A
:100AA500FFEE33FEED33FDCC33CCC833C810D7078A
:100AB5009BEC9AE899400AED9BFDEC9AFCE899F8C5
:0E0AC5000FD5F0DAE4CDFBE4CCFAE4C8F92258
:100AD300EB9FF5F0EA9E42F0E99D42F0E89C45F079
:010AE30022F0
:00000001FF
