:100D1E004F4B2100455252210020202020005061CF
:080D2E007373776F72643A00E1
:10095B00120AAE8F24E5247003020AADC3940B5028
:10096B0057E523C39405503AAF28AE27AD26AC25E7
:10097B00E47B0AFAF9F812082D8F288E278D268C26
:10098B0025E52475F00A84E4FCFDFEE52825F0F549
:10099B0028EE3527F527ED3526F526EC3525F525FB
:1009AB00052385280D85270C85260B85250A750EB5
:1009BB00057D017F02120CB7E524640B70637F2A5F
:1009CB007E4FFDFCAB28AA27A926A825C312094AEE
:1009DB007BFF700D7A0D791E7D0D7F01120CE1806E
:1009EB00407A0D79227D0D7F01120CE17FDC7E05B3
:1009FB00120D4C7BFF7A0D79277D0D7F01120CE1D7
:100A0B00E4F528F527F526F525F52385280D85270B
:100A1B000C85260B85250A750E057D017F02120CB0
:100A2B00B7E47F2A7E4FFDFCAB28AA27A926A82571
:100A3B00C312094A6039E524B40C34E523D394007E
:100A4B00402DAF28AE27AD26AC25E47B0AFAF9F88A
:100A5B001208B88F288E278D268C2515238F0D8E87
:100A6B000C8D0B8C0A750E057D017F02120CB7E500
:100A7B0024B40D2E7BFF7A0D79277D0D7F01120C8F
:100A8B00E1E4F528F527F526F525F52385280D85D1
:100A9B00270C85260B85250A750E057D017F021215
:020AAB000CB786
:010AAD002226
:100C8C00120D617BFF7A0D792C7D017F01120CE135
:100C9C0085280D85270C85260B85250A750E057D67
:0B0CAC00017F02120CB712095B80FBF5
:100D4C00EF1FAC0670011E4C600A7D027CC7DCFEF6
:040D5C00DDFC80EC4E
:010D60002270
:060D7500C2A58F80D2A789
:080D7B007F027EEFDEFEDFFCCB
:010D8300224D
:0A0D9000C2A6120D75C2A7020D7B6A
:100D04001208B8E47B0AFAF9F81208B8EB2430FFA9
:0A0D1400D2A6120D75C2A7020D7BD6
:100D3600AE07BE0104ED148006BE0209ED243F4451
:060D460080FF120D902257
:100D61007F38120D907F0C120D907F06120D907F2F
:040D710001020D90DE
:0A0D9A00AC03120D36AF04020D1475
:060CE1008B088A09890A54
:100CE700120D36E4FDAB08AA09A90A8D82758300A7
:0C0CF700120800FF6006120D140D80E9C9
:010D030022CD
:100B540024FFF515E434FFF5147F0A7E007D007C44
:010B64000090
:080B65008F138E128D118C100C
:100B6D00E4751A01F519F518F517F516C3E516957F
:100B7D0015E5146480F8748098501FAF1AAE19AD46
:100B8D0018AC17AB13AA12A911A81012082D8F1AA1
:100B9D008E198D188C17051680D2AF1AAE19AD1897
:020BAD00AC1783
:010BAF002223
:100CB700120D36850E0FE50FD39400401CE50F1279
:100CC7000B54A804A905AA06AB07AF0DAE0CAD0BD4
:090CD700AC0A120D04150F80DDBA
:010CE00022F1
:100BFF00120D36C3EA64809480400B7F2B120D14C4
:100C0F008A218B22800E7F2D120D14C3E49BF522B7
:100C1F00E49AF521851F20E520D39400401BE520A1
:100C2F00120B54A804A905AA06AB07AE21AF22E404
:090C3F00FCFD120D04152080DEFD
:010C48002289
:040BB0008A2B8B2CD5
:100BB400120D36852D2EE52ED39400403DE52E24CE
:100BC400FFF515E434FFF5147F10120B5FA804A998
:100BD40005AA06AB07AE2BAF2CE4FCFD1208B8EF58
:100BE400540FFFAE07EEC3940AEE50042430800283
:0A0BF4002437FF120D14152E80BCEB
:010BFE0022D4
:040C49008A318B322F
:100C4D00120D36853334E534D394004031E5342428
:100C5D00FFF515E434FFF5147F02120B5FA804A90C
:100C6D0005AA06AB07AE31AF32E4FCFD1208B8EFB2
:0E0C7D005401FFEF2430FF120D14153480C80F
:010C8B002246
:100AAE00E4F50A7509017590FFE50924FE600E1440
:100ABE00600F1460102403700EC297800AC29680D5
:100ACE0006C2958002C294E5091425E025E0F508DA
:100ADE002093167F0A7E00120D4C3093FD7F0A7E06
:100AEE0000120D4CE50804F50A2092177F0A7E00CD
:100AFE00120D4C3092FD7F0A7E00120D4CE508243B
:100B0E0002F50A2091177F0A7E00120D4C3091FDDE
:100B1E007F0A7E00120D4CE5082403F50A2090177B
:100B2E007F0A7E00120D4C3090FD7F0A7E00120D62
:100B3E004CE5082404F50A0509E509C3940550039C
:050B4E00020AB4AF0A29
:010B5300227F
:03000000020D846A
:0C0D8400787FE4F6D8FD758134020C8CF9
:10080000BB010CE58229F582E5833AF583E02250AD
:1008100006E92582F8E622BBFE06E92582F8E222F7
:0D082000E58229F582E5833AF583E4932211
:10082D00E88FF0A4CC8BF0A42CFCE98EF0A42CFC6A
:10083D008AF0EDA42CFCEA8EF0A4CDA8F08BF0A4E8
:10084D002DCC3825F0FDE98FF0A42CCD35F0FCEB47
:10085D008EF0A4FEA9F0EB8FF0A4CFC5F02ECD390C
:0F086D00FEE43CFCEAA42DCE35F0FDE43CFC2279
:10087C0075F008758200EF2FFFEE33FECD33CDCC33
:10088C0033CCC58233C5829BED9AEC99E5829840B6
:10089C000CF582EE9BFEED9AFDEC99FC0FD5F0D693
:1008AC00E4CEFBE4CDFAE4CCF9A88222B800C1B9BD
:1008BC000059BA002DEC8BF084CFCECDFCE5F0CBFB
:1008CC00F97818EF2FFFEE33FEED33FDEC33FCEB34
:1008DC0033FB10D703994004EB99FB0FD8E5E4F9EF
:1008EC00FA227818EF2FFFEE33FEED33FDEC33FCDC
:1008FC00C933C910D7059BE99A4007EC9BFCE99AD0
:10090C00F90FD8E0E4C9FAE4CCFB2275F010EF2F14
:10091C00FFEE33FEED33FDCC33CCC833C810D70714
:10092C009BEC9AE899400AED9BFDEC9AFCE899F84F
:0E093C000FD5F0DAE4CDFBE4CCFAE4C8F922E2
:10094A00EB9FF5F0EA9E42F0E99D42F0E89C45F003
:01095A00227A
:00000001FF
