:100DE5004F4B210045525221002020202000506108
:080DF5007373776F72643A001A
:10080000E4F5087590FFC2972093137F0AFE120E3D
:10081000133093FD7F0A7E00120E1375080120929B
:10082000147F0A7E00120E133092FD7F0A7E0012A2
:100830000E137508022091147F0A7E00120E1330E9
:1008400091FD7F0A7E00120E137508032090147F1D
:100850000A7E00120E133090FD7F0A7E00120E13E6
:100860007508047590FFC2962093147F0A7E0012CB
:100870000E133093FD7F0A7E00120E1375080520BB
:1008800092147F0A7E00120E133092FD7F0A7E00C2
:10089000120E137508062091147F0A7E00120E13A3
:1008A0003091FD7F0A7E00120E1375080720901408
:1008B0007F0A7E00120E133090FD7F0A7E00120E1A
:1008C000137508087590FFC2952093147F0A7E0067
:1008D000120E133093FD7F0A7E00120E1375080965
:1008E0002092147F0A7E00120E133092FD7F0A7E42
:1008F00000120E1375080A2091147F0A7E00120E52
:10090000133091FD7F0A7E00120E1375080B2090A4
:10091000147F0A7E00120E133090FD7F0A7E0012B3
:100920000E1375080C7590FFC2942093147F0A7EF5
:1009300000120E133093FD7F0A7E00120E1375080D
:100940000D2092147F0A7E00120E133092FD7F0A52
:100950007E00120E1375080E2091147F0A7E00127D
:100960000E133091FD7F0A7E00120E1375080F20C2
:1009700090147F0A7E00120E133090FD7F0A7E00D5
:08098000120E13750810AF08F8
:01098800224C
:100AE4001208008F24E5247003020C1AC3940B50DF
:100AF40057E523C394055038AF28AE27AD26AC255F
:100B0400E47B0AFAF9F81209B68F288E278D268C11
:100B140025E52475F00A84E4FCFDFEE52825F0F5BE
:100B240028EE3527F527ED3526F526EC3525F52570
:100B3400052385280D85270C85260B85250A750E2A
:100B4400057D017F02120D7EE524640B70637F2A0C
:100B54007E4FFDFCAB28AA27A926A825C3120AD3D9
:100B64007BFF700D7A0D79E57D0D7F01120DA88054
:100B7400407A0D79E97D0D7F01120DA87FDC7E0599
:100B8400120E137BFF7A0D79EE7D0D7F01120DA8F5
:100B9400E4F528F527F526F525F52385280D852781
:100BA4000C85260B85250A750E057D017F02120D25
:100BB4007EE524B40C2DAF28AE27AD26AC25E47B0E
:100BC4000AFAF9F8120A418F288E278D268C2515EA
:100BD400238F0D8E0C8D0B8C0A750E057D017F0203
:100BE400120D7EE524B40D2E7BFF7A0D79EE7D0D7A
:100BF4007F01120DA8E4F528F527F526F525F52340
:100C040085280D85270C85260B85250A750E057DFF
:060C1400017F02120D7EBB
:010C1A0022B7
:100D5300120E287BFF7A0D79F37D017F01120DA816
:100D630085280D85270C85260B85250A750E057D9F
:0B0D7300017F02120D7E120AE480E5F1
:100E1300EF1FAC0670011E4C600A7D027CC7DCFE2E
:040E2300DDFC80EC86
:010E270022A8
:060E3C00C2A58F80D2A7C1
:080E42007F027EEFDEFEDFFC03
:010E4A002285
:0A0E5700C2A6120E3CC2A7020E4212
:100DCB00120A41E47B0AFAF9F8120A41EB2430FFCC
:0A0DDB00D2A6120E3CC2A7020E427F
:100DFD00AE07BE0104ED148006BE0209ED243F448A
:060E0D0080FF120E5722C7
:100E28007F38120E577F0C120E577F06120E577F0F
:040E380001020E574E
:0A0E6100AC03120DFDAF04020DDB1F
:060DA8008B088A09890A8C
:100DAE00120DFDE4FDAB08AA09A90A8D8275830018
:0C0DBE00120989FF6006120DDB0D80E9B0
:010DCA002206
:100C1B0024FFF515E434FFF5147F0A7E007D007C7C
:010C2B0000C8
:080C2C008F138E128D118C1044
:100C3400E4751A01F519F518F517F516C3E51695B7
:100C440015E5146480F8748098501FAF1AAE19AD7E
:100C540018AC17AB13AA12A911A8101209B68F1A4F
:100C64008E198D188C17051680D2AF1AAE19AD18CF
:020C7400AC17BB
:010C7600225B
:100D7E00120DFD850E0FE50FD39400401CE50F12EA
:100D8E000C1BA804A905AA06AB07AF0DAE0CAD0B44
:090D9E00AC0A120DCB150F80DD2B
:010DA7002229
:100CC600120DFDC3EA64809480400B7F2B120DDB6E
:100CD6008A218B22800E7F2D120DDBC3E49BF52229
:100CE600E49AF521851F20E520D39400401BE520DA
:100CF600120C1BA804A905AA06AB07AE21AF22E475
:090D0600FCFD120DCB152080DE6E
:010D0F0022C1
:040C77008A2B8B2C0D
:100C7B00120DFD852D2EE52ED39400403DE52E243F
:100C8B00FFF515E434FFF5147F10120C26A804A908
:100C9B0005AA06AB07AE2BAF2CE4FCFD120A41EF05
:100CAB00540FFFAE07EEC3940AEE500424308002BB
:0A0CBB002437FF120DDB152E80BC5C
:010CC500220C
:040D10008A318B3267
:100D1400120DFD853334E534D394004031E5342499
:100D2400FFF515E434FFF5147F02120C26A804A97C
:100D340005AA06AB07AE31AF32E4FCFD120A41EF5F
:0E0D44005401FFEF2430FF120DDB153480C880
:010D5200227E
:03000000020E4BA2
:0C0E4B00787FE4F6D8FD758134020D5369
:10098900BB010CE58229F582E5833AF583E0225023
:1009990006E92582F8E622BBFE06E92582F8E2226D
:0D09A900E58229F582E5833AF583E4932287
:1009B600E88FF0A4CC8BF0A42CFCE98EF0A42CFCE0
:1009C6008AF0EDA42CFCEA8EF0A4CDA8F08BF0A45E
:1009D6002DCC3825F0FDE98FF0A42CCD35F0FCEBBD
:1009E6008EF0A4FEA9F0EB8FF0A4CFC5F02ECD3982
:0F09F600FEE43CFCEAA42DCE35F0FDE43CFC22EF
:100A050075F008758200EF2FFFEE33FECD33CDCCA8
:100A150033CCC58233C5829BED9AEC99E58298402B
:100A25000CF582EE9BFEED9AFDEC99FC0FD5F0D608
:100A3500E4CEFBE4CDFAE4CCF9A88222B800C1B932
:100A45000059BA002DEC8BF084CFCECDFCE5F0CB70
:100A5500F97818EF2FFFEE33FEED33FDEC33FCEBA9
:100A650033FB10D703994004EB99FB0FD8E5E4F964
:100A7500FA227818EF2FFFEE33FEED33FDEC33FC51
:100A8500C933C910D7059BE99A4007EC9BFCE99A45
:100A9500F90FD8E0E4C9FAE4CCFB2275F010EF2F8A
:100AA500FFEE33FEED33FDCC33CCC833C810D7078A
:100AB5009BEC9AE899400AED9BFDEC9AFCE899F8C5
:0E0AC5000FD5F0DAE4CDFBE4CCFAE4C8F92258
:100AD300EB9FF5F0EA9E42F0E99D42F0E89C45F079
:010AE30022F0
:00000001FF
