:100DC4004F4B210045525221002020202000506129
:080DD4007373776F72643A003B
:10080000E4F50C7590FFC2972093137F0AFE120E39
:10081000073093FD7F0A7E00120E07750C012092AF
:10082000147F0A7E00120E073092FD7F0A7E0012AE
:100830000E07750C022091147F0A7E00120E0730FD
:1008400091FD7F0A7E00120E07750C032090147F25
:100850000A7E00120E073090FD7F0A7E00120E07FE
:10086000750C047590FFC2962093147F0A7E0012C7
:100870000E073093FD7F0A7E00120E07750C0520CF
:1008800092147F0A7E00120E073092FD7F0A7E00CE
:10089000120E07750C062091147F0A7E00120E07B7
:1008A0003091FD7F0A7E00120E07750C0720901410
:1008B0007F0A7E00120E073090FD7F0A7E00120E26
:1008C00007750C087590FFC2952093147F0A7E006F
:1008D000120E073093FD7F0A7E00120E07750C0979
:1008E0002092147F0A7E00120E073092FD7F0A7E4E
:1008F00000120E07750C0A2091147F0A7E00120E5A
:10090000073091FD7F0A7E00120E07750C0B2090B8
:10091000147F0A7E00120E073090FD7F0A7E0012BF
:100920000E07750C0C7590FFC2942093147F0A7EFD
:1009300000120E073093FD7F0A7E00120E07750C21
:100940000D2092147F0A7E00120E073092FD7F0A5E
:100950007E00120E07750C0E2091147F0A7E001285
:100960000E073091FD7F0A7E00120E07750C0F20D6
:1009700090147F0A7E00120E073090FD7F0A7E00E1
:08098000120E07750C10AF0CFC
:01098800224C
:100AE400750B9F750A867509017508001208008F39
:100AF4002CE52C7003020C24C3940B5055E52BC336
:100B04009405504EAF2AAE29AD28AC27E47B0AFAEF
:100B1400F9F81209B68F2A8E298D288C27E52C75B1
:100B2400F00A84E4FCFDFEE52A25F0F52AEE3529D9
:100B3400F529ED3528F528EC3527F527052B852AE9
:100B44001185291085280FF50E7512050D7F0212E7
:100B54000D5DE52C640B7065AF0BAE0AAD09AC08F6
:100B6400AB2AAA29A928A827C3120AD37BFF700D90
:100B74007A0D79C47D0D7F01120D8780407A0D793D
:100B8400C87D0D7F01120D877FB87E0B120E077B87
:100B9400FF7A0D79CD7D0D7F01120D87E4F52AF5DD
:100BA40029F528F527F52B852A1185291085280F85
:100BB40085270E7512057D017F02120D5DE52CB4AB
:100BC4000C2BAF2AAE29AD28AC27E47B0AFAF9F83E
:100BD400120A418F2A8E298D288C278F118E108D11
:100BE4000F8C0E7512057D017F02120D5DE52CB48C
:100BF4000D2E7BFF7A0D79CD7D0D7F01120D87E4DB
:100C0400F52AF529F528F527F52B852A11852910CC
:100C140085280F85270E7512057D017F02120D5D53
:010C240022AD
:100DF200120E1C7BFF7A0D79D27D017F01120D87C5
:050E0200120AE480FB70
:100E0700EF1FAC0670011E4C600A7D027CC7DCFE3A
:040E1700DDFC80EC92
:010E1B0022B4
:060E3000C2A58F80D2A7CD
:080E36007F027EEFDEFEDFFC0F
:010E3E002291
:0A0E4B00C2A6120E30C2A7020E3636
:100DAA00120A41E47B0AFAF9F8120A41EB2430FFED
:0A0DBA00D2A6120E30C2A7020E36B8
:100DDC00AE07BE0104ED148006BE0209ED243F44AB
:060DEC0080FF120E4B22F5
:100E1C007F38120E4B7F0C120E4B7F06120E4B7F3F
:040E2C0001020E4B66
:0A0E5500AC03120DDCAF04020DBA6D
:060D87008B0C8A0D890EA1
:100D8D00120DDCE4FDAB0CAA0DA90E8D827583004E
:0C0D9D00120989FF6006120DBA0D80E9F2
:010DA9002227
:100C250024FFF519E434FFF5187F0A7E007D007C6A
:010C350000BE
:080C36008F178E168D158C142A
:100C3E00E4751E01F51DF51CF51BF51AC3E51A9595
:100C4E0019E5186480F8748098501FAF1EAE1DAD64
:100C5E001CAC1BAB17AA16A915A8141209B68F1E29
:100C6E008E1D8D1C8C1B051A80D2AF1EAE1DAD1CA9
:020C7E00AC1BAD
:010C80002251
:100D5D00120DDC851213E513D39400401CE513121C
:100D6D000C25A804A905AA06AB07AF11AE10AD0F4F
:090D7D00AC0E120DAA151380DD65
:010D8600224A
:100CD000120DDCC3EA64809480400B7F2B120DBAA6
:100CE0008A258B26800E7F2D120DBAC3E49BF52634
:100CF000E49AF525852324E524D39400401BE524BC
:100D0000120C25A804A905AA06AB07AE25AF26E458
:090D1000FCFD120DAA152480DE81
:010D190022B7
:040C81008A2F8B30FB
:100C8500120DDC853132E532D39400403DE5322446
:100C9500FFF519E434FFF5187F10120C30A804A9EC
:100CA50005AA06AB07AE2FAF30E4FCFD120A41EFF3
:100CB500540FFFAE07EEC3940AEE500424308002B1
:0A0CC5002437FF120DBA153280BC6F
:010CCF002202
:040D1A008A358B3655
:100D1E00120DDC853738E538D394004031E53824A0
:100D2E00FFF519E434FFF5187F02120C30A804A960
:100D3E0005AA06AB07AE35AF36E4FCFD120A41EF4D
:0E0D4E005401FFEF2430FF120DBA153880C893
:010D5C002274
:03000000020E3FAE
:0C0E3F00787FE4F6D8FD758138020DF2D2
:10098900BB010CE58229F582E5833AF583E0225023
:1009990006E92582F8E622BBFE06E92582F8E2226D
:0D09A900E58229F582E5833AF583E4932287
:1009B600E88FF0A4CC8BF0A42CFCE98EF0A42CFCE0
:1009C6008AF0EDA42CFCEA8EF0A4CDA8F08BF0A45E
:1009D6002DCC3825F0FDE98FF0A42CCD35F0FCEBBD
:1009E6008EF0A4FEA9F0EB8FF0A4CFC5F02ECD3982
:0F09F600FEE43CFCEAA42DCE35F0FDE43CFC22EF
:100A050075F008758200EF2FFFEE33FECD33CDCCA8
:100A150033CCC58233C5829BED9AEC99E58298402B
:100A25000CF582EE9BFEED9AFDEC99FC0FD5F0D608
:100A3500E4CEFBE4CDFAE4CCF9A88222B800C1B932
:100A45000059BA002DEC8BF084CFCECDFCE5F0CB70
:100A5500F97818EF2FFFEE33FEED33FDEC33FCEBA9
:100A650033FB10D703994004EB99FB0FD8E5E4F964
:100A7500FA227818EF2FFFEE33FEED33FDEC33FC51
:100A8500C933C910D7059BE99A4007EC9BFCE99A45
:100A9500F90FD8E0E4C9FAE4CCFB2275F010EF2F8A
:100AA500FFEE33FEED33FDCC33CCC833C810D7078A
:100AB5009BEC9AE899400AED9BFDEC9AFCE899F8C5
:0E0AC5000FD5F0DAE4CDFBE4CCFAE4C8F92258
:100AD300EB9FF5F0EA9E42F0E99D42F0E89C45F079
:010AE30022F0
:00000001FF
